:020000040000FA
:020000001228C4
:080008008F00030E90000E2092
:100010008B10100E83008F0E0F0E090069218519B9
:100020000E280800890183161130810083160D30D7
:10003000850001308600831290308B008601850197
:100040002128861706130617061306170613061728
:10005000061306170613061706130617861306134C
:100060000617061306170000000000008616061289
:1000700006160612061606120616061206160612B0
:100080000616061206168612061206160612061620
:100090000000000000008615061106150611061561
:1000A0000611061506110615061106150611061588
:1000B0008611061106150611061500000000000045
:1000C00086140512051605120516051205160512E9
:1000D00005160512051605120516861005120516D9
:1000E0000512051600000000000069218519752819
:1000F00086170613061706130617061306170613A8
:100100000617061306170613061786130613061797
:10011000061306170000000000005623861306137E
:1001200006178617061306170613061786130613F7
:1001300006170613061706130617061306170613E7
:100140000617000056238617061306170613061710
:1001500086130613061786170613061706130617C7
:1001600086130613061786170613061706130617B7
:1001700056238617061306170613061706130617C7
:100180000613061786130613061706130617861797
:1001900006130617061306170000000056238613E1
:1001A0000613061786170613061706130617861377
:1001B00006130617061306178617061306170613E7
:1001C0000617061306170000562386170613061790
:1001D0008613061306178617061306170613061747
:1001E0008613061306178617061306170613061737
:1001F00006130617562386170613061786130613CB
:100200000617861706130617061306170613061792
:10021000061306170613061706130617000000003C
:100220005623861706130617061306170613061716
:10023000861306130617061306170613061706136A
:100240000617061306170000000000005623861745
:1002500006130617061306170613061706130617C6
:1002600006130617061306170613061706130617B6
:100270000000000000000000562386170613061732
:10028000061306170613061706130617861306131A
:100290000617861706130617061306170613061702
:1002A00000000000562386170613061706130617CC
:1002B0000613061706130617061306170613061766
:1002C0008613061306170613061700000000000029
:1002D00078288E308C00AF308D0064008D0B6D2936
:1002E0008C0B6B297329080086140512051605125C
:1002F0000516051205160512051605120516051236
:1003000005168610051205160512051600000000D8
:1003100000006921861005120516861405120516BF
:10032000051205168610051205160512051605128A
:10033000051605120516051205160000692186141A
:1003400005120516051205168610051205168614E7
:1003500005120516051205168610051205168614D7
:1003600005120516051205166921861405120516D3
:10037000051205160512051605120516861005123A
:100380000516051205168614051205160512051622
:10039000000000006921861005120516861405125A
:1003A0000516051205168610051205160512051606
:1003B000861405120516051205160512051600000D
:1003C0006921861405120516861005120516861475
:1003D0000512051605120516861005120516861457
:1003E0000512051605120516051205166921861453
:1003F0000512051686100512051686140512051637
:100400000512051605120516051205160512051624
:100410000512051600000000692186140512051654
:100420000512051605120516861005120516051289
:10043000051605120516051205160512051600000B
:100440000000000069218614051205160512051624
:1004500005120516051205160512051605120516D4
:100460000512051605120516000000000000000028
:1004700069218614051205160512051605120516C2
:1004800005120516861005120516861405120516A6
:1004900005120516051205160000000069218614D4
:1004A0000512051605120516051205160512051684
:1004B00005120516051205168610051205160512F9
:1004C000051600000000000008008615061106153C
:1004D0000611061506110615061106150611061554
:1004E00006110615861106110615061106150000DF
:1004F00000000000742186110611061586150611EC
:1005000006150611061586110611061506110615A3
:1005100006110615061106150611061500007421B0
:100520008615061106150611061586110611061503
:1005300086150611061506110615861106110615F3
:100540008615061106150611061574218615061165
:100550000615061106150611061506110615861153
:100560000611061506110615861506110615061143
:100570000615000000007421861106110615861567
:100580000611061506110615861106110615061127
:10059000061586150611061506110615061106150F
:1005A0000000742186150611061586110611061520
:1005B0008615061106150611061586110611061573
:1005C0008615061106150611061506110615742165
:1005D00086150611061586110611061586150611D3
:1005E0000615061106150611061506110615061143
:1005F0000615061106150000000074218615061167
:1006000006150611061506110615861106110615A2
:100610000611061506110615061106150611061512
:100620000000000000007421861506110615061151
:1006300006150611061506110615061106150611F2
:10064000061506110615061106150000000000002B
:1006500000007421861506110615061106150611EF
:1006600006150611061586110611061586150611C2
:100670000615061106150611061500000000742166
:100680008615061106150611061506110615061122
:100690000615061106150611061586110611061512
:1006A000061106150000000000000800861606125C
:1006B000061606120616061206160612061606126A
:1006C00006160612061686120612061606120616DA
:1006D000000000000000652286120612061686162B
:1006E00006120616061206168612061206160612BE
:1006F0000616061206160612061606120616000042
:1007000065228616061206160612061686120612AE
:100710000616861606120616061206168612061209
:100720000616861606120616061206166522861686
:1007300006120616061206160612061606120616E9
:1007400086120612061606120616861606120616D9
:100750000612061600000000652286120612061612
:1007600086160612061606120616861206120616B9
:100770000612061686160612061606120616061229
:100780000616000065228616061206168612061246
:100790000616861606120616061206168612061289
:1007A00006168616061206160612061606120616F5
:1007B000652286160612061606120616061206167A
:1007C00006120616061206160612061686120612DD
:0E07D0000616061206160000000000000800C3
:02400E00FA3F77
:00000001FF
